S02700004F6E2064656D616E642054726166666963206C6967687420636F6E74726F6C2E737265637F
S11300000C942A000C9498000C943C000C943C0032
S11300100C943C000C9487000C943C000C943C0021
S11300200C943C000C943C000C943C000C943E005A
S11300300C943C000C943C000C943C000C943C004C
S11300400C943C000C943C000C943C000C943C003C
S11300500C943C0011241FBECFE5D8E0DEBFCDBF19
S113006020E0A0E6B0E001C01D92A636B207E1F799
S11300700E94E0000C9405030C9400001F920F9260
S11300800FB60F9211242F933F934F935F936F9367
S11300907F938F939F93AF93BF93EF93FF9380913D
S11300A06500803120F48F5F809365001FC080312C
S11300B0E8F0809163008F5F80936300809161001A
S11300C0813039F461E40E94DD0062E481E00E9441
S11300D0DD0080916300853039F4809162008F5F88
S11300E0809362001092630010926500FF91EF917B
S11300F0BF91AF919F918F917F916F915F914F913C
S11301003F912F910F900FBE0F901F9018951F9243
S11301100F920FB60F9211248F93809164008F5F1A
S1130120809364008F910F900FBE0F901F901895CD
S11301301F920F920FB60F9211242F933F934F9358
S11301405F936F937F938F939F93AF93BF93EF933B
S1130150FF93809160008F5F80936000882339F063
S11301608130D1F469EB83E00E94A50215C080912F
S11301706400813158F480916200811107C08F5F5F
S11301808093620010926300109265000E94E50261
S11301901092640010926000FF91EF91BF91AF91B3
S11301A09F918F917F916F915F914F913F912F918B
S11301B00F900FBE0F901F9018950E94F70108959D
S11301C00E94E7020E94F002FDCF623451F118F45C
S11301D0613441F00895633409F442C0643409F48D
S11301E05EC00895413069F44AB321E030E0B901BA
S11301F002C0660F771F8A95E2F7CB01842B8ABB76
S1130200089541116AC04AB321E030E0B90102C047
S1130210660F771F8A95E2F7CB01809584238ABB0A
S11302200895413069F447B321E030E0B90102C0D8
S1130230660F771F8A95E2F7CB01842B87BB08955D
S113024041114BC047B321E030E0B90102C0660F51
S1130250771F8A95E2F7CB018095842387BB0895A5
S1130260413069F444B321E030E0B90102C0660FC3
S1130270771F8A95E2F7CB01842B84BB0895411143
S11302802CC044B321E030E0B90102C0660F771FEF
S11302908A95E2F7CB018095842384BB089541308D
S11302A069F441B321E030E0B90102C0660F771F61
S11302B08A95E2F7CB01842B81BB089541110DC0CF
S11302C041B321E030E0B90102C0660F771F8A957F
S11302D0E2F7CB018095842381BB0895623451F108
S11302E018F4613441F00895633409F442C064346D
S11302F009F45EC00895413069F44BB321E030E065
S1130300B90102C0660F771F8A95E2F7CB01842BEF
S11303108BBB089541116AC04BB321E030E0B901B1
S113032002C0660F771F8A95E2F7CB01809584237C
S11303308BBB0895413069F448B321E030E0B90142
S113034002C0660F771F8A95E2F7CB01842B88BB26
S1130350089541114BC048B321E030E0B90102C017
S1130360660F771F8A95E2F7CB018095842388BBBB
S11303700895413069F445B321E030E0B90102C089
S1130380660F771F8A95E2F7CB01842B85BB08950E
S113039041112CC045B321E030E0B90102C0660F21
S11303A0771F8A95E2F7CB018095842385BB089556
S11303B0413069F442B321E030E0B90102C0660F74
S11303C0771F8A95E2F7CB01842B82BB08954111F4
S11303D00DC042B321E030E0B90102C0660F771FBF
S11303E08A95E2F7CB018095842382BB0895623419
S11303F0B1F018F4613431F008956334E9F06434F1
S113040041F108954BB321E030E0B90102C0660F19
S1130410771F8A95E2F7CB0184278BBB089548B3F5
S113042021E030E0B90102C0660F771F8A95E2F738
S1130430CB01842788BB089545B321E030E0B9019E
S113044002C0660F771F8A95E2F7CB01842785BB2C
S1130450089542B321E030E0B90102C0660F771F6E
S11304608A95E2F7CB01842782BB0895813041F05D
S113047028F0823041F0833049F0089513BE089586
S113048080E483BF089588E083BF089588E483BF30
S1130490089562BF8530F0F58230F9F028F488239E
S11304A041F0813081F00895833009F1843049F1BD
S11304B0089583B7816083BF83B78D7F83BF83B77C
S11304C08B7F83BF089583B78E7F83BF83B782609A
S11304D083BF83B78B7F83BF089583B7816083BF56
S11304E083B7826083BF83B78B7F83BF089583B74D
S11304F08E7F83BF83B78D7F83BF83B7846083BFC1
S1130500089583B7816083BF83B78D7F83BF83B72B
S1130510846083BF089513BE0895CF93C42F0E94AF
S1130520490220E030E008C008B600FEFDCF88B7DD
S11305308E7F88BF2F5F3F4F8C2F90E0281739079D
S113054098F30E948B02CF91089564BD8230F9F034
S113055028F4882341F0813081F00895833009F133
S1130560843049F1089585B5816085BD85B58D7F59
S113057085BD85B58B7F85BD089585B58E7F85BD89
S113058085B5826085BD85B58B7F85BD089585B5AC
S1130590816085BD85B5826085BD85B58B7F85BD50
S11305A0089585B58E7F85BD85B58D7F85BD85B55F
S11305B0846085BD089585B5816085BD85B58D7FD1
S11305C085BD85B5846085BD089515BC089541E059
S11305D061E482E00E94E50080E00E943602089512
S11305E041E061E482E00E946E0145E168E782E057
S11305F00E948D0240E061E482E00E946E0145E1C8
S111060068E782E00E948D02EBCFF894FFCFF2
S9030000FC
